:10000000D7C500000C94700C0C94450C0C941A0C81
:100010000C94EF0B0C94C40B0C94990B0C946E0B7A
:100020000C94430BF6C50000F4C50000F2C50000B7
:10003000F0C50000EEC50000ECC50000EAC50000F8
:10004000E8C50000E6C50000E4C50000E2C5000008
:10005000E0C50000DEC50000DCC500000C94F90A14
:10006000D8C500000C94DA090C94B109D2C500007F
:10007000D0C50000CEC50000CCC50000CAC5000038
:10008000C8C50000C6C50000C4C50000C2C5000048
:10009000C0C50000BEC50000BCC500000C94C62150
:1000A000B8C50000B6C50000B4C50000B2C5000068
:1000B000B0C50000AEC50000ACC50000AAC5000078
:1000C000A8C50000A6C50000A4C500000C948809BE
:1000D0000C945F099EC500009CC500009AC50000F5
:1000E00098C500006507680757075B0761079F070A
:1000F0006C07700776077A077E07840788078C07E6
:100100009F07920796079A07102B702B702B682A6F
:10011000702BAC2AF32AF02A702B702B702BEA2A52
:10012000BF2A772A702B702B702B702B8F2A702B85
:10013000452B702B702B702BE22A702B702B702BA1
:10014000702B702B702B702B182B702B702B532A4D
:10015000702B702B012BF62A242B562A702B592A30
:10016000A62AA92A702B702B702B702B2A2BD42A2D
:10017000702B702B7A2A702BE52A822A084AD73BEB
:100180003BCE016E84BCBFFDC12F3D6C74319ABD66
:1001900056833DDA3D00C77F11BED9E4BB4C3E918A
:1001A0006BAAAABE000000803F07634236B79BD807
:1001B000A71A39685618AEBAAB558C1D3CB7CC5748
:1001C00063BD6DEDFD753EF6177231BF0000008016
:1001D0003F08000000BE922449123EABAAAA2ABEE4
:1001E000CDCCCC4C3E00000080BEABAAAAAA3E00FB
:1001F000000000BF000000803F0000000000084138
:1002000078D3BB4387D1133D190E3CC3BD4282ADA9
:100210002B3E68EC8276BED98FE1A93E4C80EFFF81
:10022000BE01C4FF7F3F00000000000000407A10C4
:10023000F35A00A0724E18090010A5D4E80000E897
:100240007648170000E40B54020000CA9A3B0000F5
:1002500000E1F505000080969800000040420F0084
:100260000000A08601000000102700000000E80345
:10027000000000006400000000000A000000000010
:100280000100000000002C76D888DC674F0823DFCF
:10029000C1DFAE59E1B1B796E5E3E453C63AE651A2
:1002A000997696E8E6C28426EB898C9B62ED407CC9
:1002B0006FFCEFBC9C9F40F2BAA56FA5F490055A65
:1002C0002AF75C936B6CF9676DC11BFCE0E40D478A
:1002D000FEF520E6B500D0ED902E030094357705AD
:1002E0000080841E080000204E0A000000C80C3365
:1002F0003333330F986E12831141EF8D2114893BF4
:10030000E65516CFFEE6DB18D1844B381BF77C1D73
:10031000901DA4BBE424203284725E228100C9F1C6
:1003200024ECA1E53D270102102020080810204000
:1003300010204080020102010804020101020408A9
:100340001020408080402010080402018004020137
:100350008040201008040201080402010102040880
:10036000102040800102040810204080000022007C
:10037000250028002B002E0031003400020100006F
:10038000050108010B010505050507050808080812
:10039000020202020A0A080804040404010101011D
:1003A0000101010103030303030303030407070718
:1003B0000C0C0C0C0C0C0C0C0202020206060606BD
:1003C000060606060B0B0B0B0B0B0B0B04E01002C7
:1003D0001C07123732292D29252B3900010310E182
:1003E00010031D07062E2C292D2E2E373F0000024C
:1003F0001013800A298064022A040000007F2B0465
:100400000000009F0F0180961180FFB103012C2D89
:10041000B203012C2DB306012C2D012C2DB40107A4
:10042000C003A20284C101C5C2020A00C3028A2A13
:10043000C4028AEEC5010E20003601C83A0105004B
:10044000002100240027002A002D00300033000185
:10045000010000040107010A01000020002300261A
:100460000029002C002F00320000010000030106CB
:1004700001090100000A0B02090C0D0E0807030414
:10048000010000000000000000000000000000006B
:10049000000000000000000000000000000000124A
:1004A000111000000000000000000000000000002B
:1004B0000000000000000000000FC0FC001FE1FE73
:1004C000003FF3FF007FF3FF80FFFFFFC0FFFFFF50
:1004D000C0FFFFFFC0FFFFFFC0FFFFFFC0FFFFFF28
:1004E000C07FFFFF803FFFFF001FFFFE000FFFFCEC
:1004F0000007FFF80003FFF00001FFE00000FFC06D
:1005000000007F8000003F0000001E0000000C0083
:10051000000300E0000380F00003C0F80003E0FCEB
:100520000001F0FE000078FF00003FC780001FC3FD
:10053000C0000FC1E00007C0F00003C0780001C098
:100540001C0FFFFFFF0FFFFFFF0C0000030C00005C
:1005500003FCFFFFF3FCFFFFF3C0FFFFF3C0FFFF4F
:10056000F3C0FFFFF3C0FFFFF3FCFFFFF3FCFFFF4F
:10057000F30C0000030C0000030FFFFFFF0FFFFF51
:10058000FF0FFFFFFF0FFFFFFF0C0000030C000039
:1005900003FC07FFF3FC07FFF3C007FFF3C007FFEF
:1005A000F3C007FFF3C007FFF3FC07FFF3FC07FFEF
:1005B000F30C0000030C0000030FFFFFFF0FFFFF11
:1005C000FF0FFFFFFF0FFFFFFF0C0000030C0000F9
:1005D00003FC003FF3FC003FF3C0003FF3C0003FCB
:1005E000F3C0003FF3C0003FF3FC003FF3FC003FCB
:1005F000F30C0000030C0000030FFFFFFF0FFFFFD1
:10060000FF0FFFFFFF0FFFFFFF0C0000030C0000B8
:1006100003FC0001F3FC0001F3C00001F3C0000182
:10062000F3C00001F3C00001F3FC0001F3FC000182
:10063000F30C0000030C0000030FFFFFFF0FFFFF90
:10064000FF0FFFFFFF0FFFFFFF0C0000030C000078
:1006500003FC000003FC000003C0000003C0000016
:1006600003C0000003C0000003FC000003FC000006
:10067000030C0000030C0000030FFFFFFF0FFFFF40
:10068000FF383C3633B1F3363C36F3B133363C38C1
:1006900000000000003E5B4F5B3E3E6B4F6B3E1C1C
:1006A0003E7C3E1C183C7E3C181C577D571C1C5E33
:1006B0007F5E1C00183C1800FFE7C3E7FF0018240A
:1006C0001800FFE7DBE7FF30483A060E26297929B4
:1006D00026407F050507407F05253F5A3CE73C5AE9
:1006E0007F3E1C1C08081C1C3E7F14227F22145FC6
:1006F0005F005F5F06097F017F006689956A606021
:1007000060606094A2FFA29408047E040810207E1A
:10071000201008082A1C08081C2A08081E1010109F
:10072000100C1E0C1E0C30383E3830060E3E0E06E5
:10073000000000000000005F000000070007001438
:100740007F147F14242A7F2A1223130864623649F7
:100750005620500008070300001C224100004122DF
:100760001C002A1C7F1C2A08083E080800807030E4
:100770000008080808080000606000201008040253
:100780003E5149453E00427F400072494949462159
:1007900041494D331814127F1027454545393C4ACD
:1007A00049493141211109073649494936464949E4
:1007B000291E00001400000040340000000814222C
:1007C000411414141414004122140802015909069A
:1007D0003E415D594E7C1211127C7F494949363E9B
:1007E000414141227F4141413E7F494949417F0981
:1007F0000909013E414151737F0808087F00417F8C
:1008000041002040413F017F081422417F40404089
:10081000407F021C027F7F0408107F3E4141413E21
:100820007F090909063E4151215E7F0919294626A3
:100830004949493203017F01033F4040403F1F20A7
:1008400040201F3F4038403F63140814630304787E
:1008500004036159494D43007F414141020408109E
:1008600020004141417F04020102044040404040D9
:10087000000307080020545478407F284444383847
:1008800044444428384444287F38545454180008B9
:100890007E090218A4A49C787F0804047800447D93
:1008A00040002040403D007F1028440000417F4030
:1008B000007C047804787C08040478384444443884
:1008C000FC1824241818242418FC7C080404084864
:1008D0005454542404043F44243C4040207C1C20B5
:1008E00040201C3C4030403C44281028444C909010
:1008F000907C4464544C440008364100000077006A
:1009000000004136080002010204023C2623263C76
:100910001EA1A161123A4040207A38545455592101
:1009200055557941225454784221555478402054E9
:100930005579400C1E527212395555555939545437
:10094000545939555454580000457C410002457DA6
:10095000420001457C407D1211127DF0282528F0CF
:100960007C545545002054547C547C0A097F4932FC
:10097000494949323A4444443A324A4848303A4173
:1009800041217A3A42402078009DA0A07D3D42421C
:10099000423D3D4040403D3C24FF2424487E4943A5
:1009A000662B2FFC2F2BFF0929F620C0887E090318
:1009B00020545479410000447D413048484A32383F
:1009C0004040227A007A0A0A727D0D19317D26296B
:1009D000292F28262929292630484D402038080863
:1009E000080808080808382F10C8ACBA2F10283497
:1009F000FA00007B000008142A142222142A14088A
:100A00005500550055AA55AA55AAFF55FF55FF0098
:100A10000000FF00101010FF00141414FF0010104D
:100A2000FF00FF1010F010F0141414FC001414F761
:100A300000FF0000FF00FF1414F404FC141417104E
:100A40001F10101F101F1414141F00101010F0009E
:100A50000000001F101010101F10101010F01000D8
:100A60000000FF101010101010101010FF100000E8
:100A700000FF140000FF00FF00001F10170000FC23
:100A800004F414141710171414F404F40000FF00F5
:100A9000F714141414141414F700F714141417147E
:100AA00010101F101F141414F4141010F010F00084
:100AB000001F101F0000001F14000000FC140000A5
:100AC000F010F01010FF10FF141414FF1410101089
:100AD0001F00000000F010FFFFFFFFFFF0F0F0F03C
:100AE000F0FFFFFF0000000000FFFF0F0F0F0F0FD0
:100AF0003844443844FC4A4A4A347E02020606021C
:100B00007E027E0263554941633844443C04407E82
:100B1000201E2006027E020299A5E7A5991C2A49FB
:100B20002A1C4C7201724C304A4D4D303048784886
:100B300030BC625A463D3E494949007E0101017E72
:100B40002A2A2A2A2A44445F444440514A444040C5
:100B5000444A51400000FF0103E080FF0000080804
:100B60006B6B083612362436060F090F0600001884
:100B7000180000001010003040FF0101001F0101AB
:100B80001E00191D1712003C3C3C3C0000000000F8
:100B90001F1C1F1E1F1E1F1F1E1F1E1F7C3C3E5E94
:100BA0002B3D3F2F5B5D3B2C2A225C009B3E933EFE
:100BB00011241FBECFEFD1E2DEBFCDBF00E00CBFDE
:100BC00015E0A0E0B2E0E6E2FCE900E00BBF02C005
:100BD00007900D92A43BB107D9F72AE0A4EBB5E04A
:100BE00001C01D92A93FB207E1F715E0C7EDD5E0BE
:100BF00000E006C021970109802FFE010E945647A0
:100C0000C63DD10780E00807A9F70E940B360C9477
:100C1000024EF6C90895CF92DF92EF92FF920F93A2
:100C20001F93CF93DF936C017A018B01C0E0D0E07A
:100C3000CE15DF0589F0D8016D918D01D601ED91BA
:100C4000FC910190F081E02DC6011995892B11F4DA
:100C50007E0102C02196ECCFC701DF91CF911F9199
:100C60000F91FF90EF90DF90CF900895FC01A08945
:100C7000B1898C91A689B78982FD0FC09C91818D25
:100C80008F5F8F73228D821749F0218DDF01A20FB4
:100C9000B11D5D969C93818F08958C910895FC0100
:100CA000918D828D981761F0828DDF01A80FB11DA3
:100CB0005D968C91928D9F5F9F73928F90E00895C7
:100CC0008FEF9FEF0895FC01918D828D981731F081
:100CD000828DE80FF11D858D90E008958FEF9FEFD5
:100CE0000895FC01918D228D892F90E0805C9F4FAB
:100CF000821B91098F739927089587ED96E0F1DFA4
:100D000021E0892B09F420E0822F089584E797E001
:100D1000E8DF21E0892B09F420E0822F0895FC010F
:100D2000848DDF01A80FB11DA35ABF4F2C91848D74
:100D300090E001968F739927848FA689B7892C93A9
:100D4000A089B1898C9180648C93938D848D981344
:100D500006C00288F389E02D80818F7D808308950D
:100D6000EF92FF920F931F93CF93DF93EC0181E0FB
:100D7000888F9B8D8C8D981305C0E889F9898081B7
:100D800085FD23C0F62E0B8D10E00F5F1F4F0F73F4
:100D90001127E02E8C8DE8120BC00FB607FCFACF9E
:100DA000E889F989808185FFF5CFCE01B8DFF2CFE0
:100DB0008B8DFE01E80FF11DE35AFF4FF0820B8F80
:100DC000EA89FB898081806207C0EE89FF896083A0
:100DD000E889F98980818064808381E090E0DF91F7
:100DE000CF911F910F91FF90EF900895CF93DF93D4
:100DF000EC01888D8823C1F0EA89FB89808185FD1B
:100E000005C0A889B9898C9186FD0EC00FB607FC74
:100E1000F5CF808185FFF2CFA889B9898C9185FFB4
:100E2000EDCFCE017CDFE8CFDF91CF91089580E058
:100E300090E0892B19F06ADF811120C080E090E0FA
:100E4000892B41F080E090E0892B21F00E94000086
:100E5000811117C080E090E0892B19F04EDF8111DD
:100E600013C080E090E0892BA1F080E090E0892B16
:100E700081F00E94000081110AC008950E940000C4
:100E8000DDCF0E940000E6CF0E940000EACF0C9464
:100E90000000089590E0FC013197E231F10508F07F
:100EA0004EC08827EE58FF4F8F4F0C9456478091C5
:100EB00080008F7703C0809180008F7D80938000B9
:100EC000089580918000877FF9CF84B58F7702C025
:100ED00084B58F7D84BD08958091B0008F7703C065
:100EE0008091B0008F7D8093B00008958091900034
:100EF0008F7707C0809190008F7D03C08091900014
:100F0000877F8093900008958091A0008F7707C01D
:100F10008091A0008F7D03C08091A000877F809387
:100F2000A0000895809120018F7707C08091200153
:100F30008F7D03C080912001877F809320010895D9
:100F40003FB7F89480910C0690910D06A0910E0683
:100F5000B0910F0626B5A89B05C02F3F19F001964A
:100F6000A11DB11D3FBFBA2FA92F982F8827820F2F
:100F7000911DA11DB11DBC01CD0142E0660F771F7F
:100F8000881F991F4A95D1F7089508950E94E54A50
:100F90000F931F93CF93DF93EC0188819981009782
:100FA00029F02A813B812617370788F48B016F5F70
:100FB0007F4F0E94014A009761F0998388831B83C9
:100FC0000A832C813D81232B11F4FC01108281E0E6
:100FD00001C080E0DF91CF911F910F910895EF92B2
:100FE000FF920F931F93CF93DF93FC0124813581F0
:100FF0006115710511F480E018C041155105A1F08B
:101000007B01EC018A01020F131FB801C1DF8823A5
:1010100091F3288139818C819D81B701820F931FC3
:101020000E94134B1D830C8381E0DF91CF911F91B0
:101030000F91FF90EF900895CF93DF93EC0188819B
:101040009981009711F00E946949198218821D82C6
:101050001C821B821A82DF91CF910895EF92FF923A
:101060000F931F93CF93DF93EC017B018A01BA01A9
:101070008FDF811103C0CE01DFDF07C01D830C832A
:10108000B701888199810E94134BCE01DF91CF91E6
:101090001F910F91FF90EF900895CF93DF93EC0194
:1010A0006115710559F0FB0101900020E9F73197B6
:1010B000AF01461B570B93DF811102C0CE01BCDF8D
:1010C000CE01DF91CF910895CF93DF93EC01FB0127
:1010D000448155816081718182DF811102C0CE011E
:1010E000ABDFCE01DF91CF910895CF93DF93EC0179
:1010F0006115710551F0FB0101900020E9F731976E
:10110000AF01461B570BAADF01C096DFCE01DF916E
:10111000CF910895CF93DF93EC01FB0186179707DA
:1011200051F0608171816115710521F04481558113
:1011300095DF01C081DFCE01DF91CF910895FC01E1
:10114000808191810C946949EF92FF920F931F93D4
:10115000CF93DF93CDB7DEB7A1970FB6F894DEBF7C
:101160000FBECDBF7C01CB01BA01F7011182108205
:10117000138212821582148242E0420F8E010F5FA9
:101180001F4F0E94E63FBC01C701AFDFA1960FB61B
:10119000F894DEBF0FBECDBFDF91CF911F910F91AD
:1011A000FF90EF900895FC01118210821382128249
:1011B000158214826115710549F0FB010190002030
:1011C000E9F73197AF01461B570B48CF0895DC0173
:1011D000ED91FC910190F081E02D1994611571055C
:1011E00079F0FB0101900020E9F73197AF01461B30
:1011F000570BDC01ED91FC910280F381E02D1994F5
:1012000080E090E008954F925F926F927F92EF920C
:10121000FF920F931F93CF93DF93CDB7DEB7A197C4
:101220000FB6F894DEBF0FBECDBF7C01FA01CB0133
:1012300019A2223008F42AE08E010F5D1F4F422EC2
:10124000512C612C712CBF01A30192010E94C64355
:10125000F901CA01015011096A3014F4605D01C03E
:10126000695CD8016C93232B242B252B61F7B801E3
:10127000C701B4DFA1960FB6F894DEBF0FBECDBF95
:10128000DF91CF911F910F91FF90EF907F906F9022
:101290005F904F90089569E973E0A0CF0F931F937B
:1012A000CF93DF93EC019ADF8C01CE01F4DF800F46
:1012B000911FDF91CF911F910F9108958FCF1F92B2
:1012C0000F920FB60F9211240BB60F922F933F93EC
:1012D0004F935F936F937F938F939F93AF93BF933E
:1012E000EF93FF9387ED96E01ADDFF91EF91BF91A9
:1012F000AF919F918F917F916F915F914F913F91AE
:101300002F910F900BBE0F900FBE0F901F9018954E
:101310001F920F920FB60F9211240BB60F922F93BC
:101320003F934F935F936F937F938F939F93AF936D
:10133000BF93EF93FF9387ED96E098DCFF91EF91D9
:10134000BF91AF919F918F917F916F915F914F91DD
:101350003F912F910F900BBE0F900FBE0F901F90DB
:1013600018951F920F920FB60F9211240BB60F9281
:101370002F933F934F935F936F937F938F939F939D
:10138000AF93BF93EF93FF9384E797E0C8DCFF919F
:10139000EF91BF91AF919F918F917F916F915F91ED
:1013A0004F913F912F910F900BBE0F900FBE0F905A
:1013B0001F9018951F920F920FB60F9211240BB623
:1013C0000F922F933F934F935F936F937F938F93DE
:1013D0009F93AF93BF93EF93FF9384E797E046DC2F
:1013E000FF91EF91BF91AF919F918F917F916F91FD
:1013F0005F914F913F912F910F900BBE0F900FBEB9
:101400000F901F901895CF93DF93282F30E0F901AC
:10141000ED58FB4F8491F901EA5DFC4FD491F9013D
:10142000EA57FC4FC491CC2389F0811133DDEC2FB6
:10143000F0E0EE0FFF1FE75AFB4FA591B491EC913E
:10144000ED2381E090E021F480E002C080E090E0B4
:10145000DF91CF9108951F93CF93DF93282F30E032
:10146000F901ED58FB4F8491F901EA5DFC4FD491ED
:10147000F901EA57FC4FC491CC23C1F0162F81111A
:1014800009DDEC2FF0E0EE0FFF1FE459FC4FA591B2
:10149000B4918FB7F894111105C09C91ED2FE09590
:1014A000E92302C0EC91ED2BEC938FBFDF91CF913C
:1014B0001F910895CF93DF9390E0FC01EA5DFC4F0C
:1014C0002491FC01EA57FC4F8491882361F190E05C
:1014D000880F991FFC01E15CFB4FC591D491FC0181
:1014E000E459FC4FA591B491611109C09FB7F894DC
:1014F0008881209582238883EC912E230BC0623053
:1015000061F49FB7F8943881822F80958323888374
:10151000EC912E2B2C939FBF06C08FB7F894E881D7
:101520002E2B28838FBFDF91CF910895863308F04B
:10153000865390917B00282F2870977F922B909351
:101540007B008770806480937C0080917A00806447
:1015500080937A0080917A0086FDFCCF809178009C
:101560002091790090E0922B08958F929F92AF92F4
:10157000BF92CF92DF92EF92FF926B017C01E0DC91
:101580004B015C01C114D104E104F104E9F0D8DCA1
:10159000DC01CB0188199909AA09BB09883E93404F
:1015A000A105B10578F321E0C21AD108E108F108DC
:1015B00088EE880E83E0981EA11CB11CC114D104D2
:1015C000E104F10421F7DECFFF90EF90DF90CF90A0
:1015D000BF90AF909F908F9008952FB7F89460912F
:1015E00008067091090680910A0690910B062FBF9C
:1015F00008951F920F920FB60F9211242F933F93CD
:101600008F939F93AF93BF938091080690910906A3
:10161000A0910A06B0910B063091070623E0230F34
:101620002D3720F40196A11DB11D05C026E8230F1A
:101630000296A11DB11D2093070680930806909382
:101640000906A0930A06B0930B0680910C069091B0
:101650000D06A0910E06B0910F060196A11DB11DB9
:1016600080930C0690930D06A0930E06B0930F0680
:10167000BF91AF919F918F913F912F910F900FBE8E
:101680000F901F9018951F920F920FB60F92112472
:101690000BB60F922F933F934F935F936F937F936C
:1016A0008F939F93AF93BF93EF93FF93E0910E02BD
:1016B000F0910F021995FF91EF91BF91AF919F911A
:1016C0008F917F916F915F914F913F912F910F90EB
:1016D0000BBE0F900FBE0F901F9018951F920F9288
:1016E0000FB60F9211240BB60F922F933F934F9387
:1016F0005F936F937F938F939F93AF93BF93EF937A
:10170000FF93E0910C02F0910D021995FF91EF917A
:10171000BF91AF919F918F917F916F915F914F9109
:101720003F912F910F900BBE0F900FBE0F901F9007
:1017300018951F920F920FB60F9211240BB60F92AD
:101740002F933F934F935F936F937F938F939F93C9
:10175000AF93BF93EF93FF93E0910202F0910302E6
:101760001995FF91EF91BF91AF919F918F917F91CB
:101770006F915F914F913F912F910F900BBE0F9002
:101780000FBE0F901F9018951F920F920FB60F92D9
:1017900011240BB60F922F933F934F935F936F9348
:1017A0007F938F939F93AF93BF93EF93FF93E091BA
:1017B0000002F09101021995FF91EF91BF91AF9155
:1017C0009F918F917F916F915F914F913F912F9159
:1017D0000F900BBE0F900FBE0F901F9018951F9289
:1017E0000F920FB60F9211240BB60F922F933F93C7
:1017F0004F935F936F937F938F939F93AF93BF9319
:10180000EF93FF93E0910A02F0910B021995FF917B
:10181000EF91BF91AF919F918F917F916F915F9168
:101820004F913F912F910F900BBE0F900FBE0F90D5
:101830001F9018951F920F920FB60F9211240BB69E
:101840000F922F933F934F935F936F937F938F9359
:101850009F93AF93BF93EF93FF93E0910802F091B2
:1018600009021995FF91EF91BF91AF919F918F91CF
:101870007F916F915F914F913F912F910F900BBE90
:101880000F900FBE0F901F9018951F920F920FB6DA
:101890000F9211240BB60F922F933F934F935F93A8
:1018A0006F937F938F939F93AF93BF93EF93FF9328
:1018B000E0910602F09107021995FF91EF91BF9117
:1018C000AF919F918F917F916F915F914F913F91D8
:1018D0002F910F900BBE0F900FBE0F901F90189579
:1018E0001F920F920FB60F9211240BB60F922F93E7
:1018F0003F934F935F936F937F938F939F93AF9398
:10190000BF93EF93FF93E0910402F09105021995C4
:10191000FF91EF91BF91AF919F918F917F916F91C7
:101920005F914F913F912F910F900BBE0F900FBE83
:101930000F901F901895EF92FF920F931F93CF93E4
:10194000DF931F92CDB7DEB78EE169830E945D2CD5
:1019500069818EE598E00E944C1F0E94BC2B8EE1AD
:101960000E945D2C62E070E08EE190E00E940F30FA
:101970009091DF0A8091E00A9817F1F38EE598E0E4
:101980000E94011F082F8EE598E00E94011F182F6A
:101990000E94BC2BF02EE12CC701812B0F90DF9110
:1019A000CF911F910F91FF90EF9008958F929F928A
:1019B000AF92BF92EF92FF920F931F93CF934B0181
:1019C0005C01C42F8091120290911302A091140225
:1019D000B091150288159905AA05BB0501F10E9471
:1019E0000D19811102C080E020C08FEDE82E88E043
:1019F000F82E00E012E020E030E0B501A401809173
:101A00005F06909160060E941917882361F3809207
:101A1000120290921302A0921402B09215028091C9
:101A2000DE08C82BC093DE0881E0CF911F910F9193
:101A3000FF90EF90BF90AF909F908F9008954F923E
:101A40005F926F927F928F929F92AF92BF92CF924E
:101A5000DF92EF92FF920F931F93CF93DF93EC01EE
:101A60006A017B0128013901423051056105710588
:101A700010F480E072C089859A85AB85BC8501969B
:101A8000A11DB11D84179507A607B70790F38B8892
:101A90009C88AD88BE888F89803129F4BB27AF2D03
:101AA0009E2D8D2D09C0DB01CA0147E0B695A79593
:101AB000979587954A95D1F7880E991EAA1EBB1E49
:101AC0008091120290911302A0911402B09115021C
:101AD00088169906AA06BB0679F48F89803199F495
:101AE000DD24EE24FF24C601880F991FFC01E1527A
:101AF000F74F5182408218C040E0C501B40156DF63
:101B00008111EBCFB6CFE894C7F8DD24EE24FF2493
:101B1000C601880F991F880F991FFC01E152F74FEA
:101B200040825182628273828091DE08816080935C
:101B3000DE088A89823080F08D819E81AF81B885F0
:101B4000880E991EAA1EBB1E809203069092040660
:101B5000A0920506B092060681E0DF91CF911F9119
:101B60000F91FF90EF90DF90CF90BF90AF909F903C
:101B70008F907F906F905F904F9008958F929F927B
:101B8000AF92BF92CF92DF92EF92FF920F931F938B
:101B9000CF93DF93FC0181859285A385B48501965F
:101BA000A11DB11D84179507A607B70710F480E0A3
:101BB0005BC083899489A589B689C789C03129F416
:101BC000852E962EA72EBB2409C04A015B01C7E0D3
:101BD000B694A79497948794CA95D1F7E9016A01BE
:101BE0007B018F01BC01CD01680D791D8A1D9B1DF4
:101BF0008090120290901302A0901402B0901502EF
:101C0000681579058A059B0599F4F8018789803163
:101C1000A1F4B701A601552766277727440F551F62
:101C2000FA01E152F74F80819181A0E0B0E017C046
:101C300040E0BCDE8111E9CFBACFB701A6014F77F2
:101C4000552766277727440F551F440F551FFA0164
:101C5000E152F74F80819181A281B381BF70888367
:101C60009983AA83BB8381E0DF91CF911F910F916C
:101C7000FF90EF90DF90CF90BF90AF909F908F90AC
:101C800008954F925F926F927F92AF92BF92CF92E0
:101C9000DF92EF92FF920F931F93CF93DF9300D0C9
:101CA0001F92CDB7DEB78C0149835A836B837C8347
:101CB0005901C12CD12C7601412C82E0582E612C87
:101CC000712C49815A816B817C819E012F5F3F4F2E
:101CD000C80154DF882351F1D301C201F801058402
:101CE00004C0880F991FAA1FBB1F0A94D2F7C80E01
:101CF000D91EEA1EFB1E49815A816B817C8187892E
:101D0000803129F088EF9FEFAFEFBFE004C088EF8C
:101D10009FEFA0E0B0E0481759076A077B0788F2F9
:101D2000F501C082D182E282F38281E00F900F90B0
:101D30000F900F90DF91CF911F910F91FF90EF9037
:101D4000DF90CF90BF90AF907F906F905F904F905B
:101D50000895CF92DF92EF92FF920F931F933DDC95
:101D60000091E1051091E2052091E3053091E40531
:101D70006B017C01C01AD10AE20AF30A97018601BD
:101D8000083C11052105310508F10091E10510918C
:101D9000E2052091E3053091E4050093E5051093F9
:101DA000E6052093E7053093E8056093E10570931D
:101DB000E2058093E3059093E405809114069091E9
:101DC0001506019690931506809314061F910F91A6
:101DD000FF90EF90DF90CF900895CF92DF92EF9237
:101DE000FF920F931F93F9DB0091EB051091EC0527
:101DF0002091ED053091EE056B017C01C01AD10AEE
:101E0000E20AF30A97018601083C11052105310514
:101E100008F10091EB051091EC052091ED05309152
:101E2000EE050093EF051093F0052093F105309334
:101E3000F2056093EB057093EC058093ED059093AC
:101E4000EE05809112069091130601969093130669
:101E5000809312061F910F91FF90EF90DF90CF902B
:101E60000895CF92DF92EF92FF920F931F93C0904D
:101E7000BB05D090BC05E090BD05F090BE0500917B
:101E8000BF051091C0052091C1053091C205409158
:101E9000C3055091C4056091C5057091C6058CE9D4
:101EA00093E00E949C29BC0180916E0890916F087C
:101EB000892B31F46115710509F467C0FB0108C075
:101EC00080916A0890916B086115710531F4FC01ED
:101ED0008081882309F459C005C00E940A4B892BD0
:101EE00009F453C0E12C78EFF72E0FE010E02CE35B
:101EF00030E040E050E060E070E08EEA98E00E9460
:101F0000542EC090BB05D090BC05E090BD05F0906C
:101F1000BE050091BF051091C0052091C10530910B
:101F2000C2054091C3055091C4056091C5057091EB
:101F3000C6058CE993E00E949C29BC018AE698E0E2
:101F4000D4D81092BB081092BA081092BD08109213
:101F5000BC0882E08093C2088FEF9FEF9093C10886
:101F60008093C0089093BF088093BE0840916E088C
:101F700050916F0860916A0870916B088EEA98E042
:101F80000E940B068EEA98E086D9E090B405F12C09
:101F900085E239DAE816F90621F1EE24EA94FE2CFE
:101FA0000FE010E029E030E040E050E066E470E04F
:101FB0008EEA98E00E94542E85E225DA019769F4B2
:101FC0005FE1E52EF12C28E030E041E856E060E0EA
:101FD00070E086E490E00E94E12885E214DA8093C4
:101FE000B405E12CF12C00E110E020E830E040E005
:101FF00050E060E670E08EEA98E00E94542EC090B7
:10200000C705D090C805E090C905F090CA0523E344
:1020100033E343E350E4C701B6010E949D4287FFCA
:1020200008C0E12C48EFF42E20E230E041E456E015
:1020300041C026E636E646E450E4C701B6010E94F8
:102040009D4287FF0BC030EEE32EFF24FA9400E19F
:1020500010E020E230E041E056E02CC02AE939E906
:1020600049E550E4C701B6010E949D4287FF0BC0BD
:1020700020EEE22EFF24FA9400E110E020E230E0AE
:1020800041EC55E017C026E636E646E650E4C701C7
:10209000B6010E949D4290EEE92E97E0F92E00E1F4
:1020A00010E020E230E087FF03C041E855E002C0C5
:1020B00041E455E060E070E080E690E00E94E128B5
:1020C00088E334DA81329340FCF086E690E0909326
:1020D000BB088093BA0884E090E09093BD08809399
:1020E000BC0880E098EF9093C1088093C00890935B
:1020F000BF088093BE0881E08093C20860EA73E065
:102100008EEA98E0DBD816C08091CB059091CC0583
:10211000893C91057CF0EE24EA94FE2C0CE010E062
:1021200020E230E041E155E062E070E080E690E0DE
:102130000E94E1282091B5053091B60580911006E6
:10214000909111062817390771F0E12CF12C00EA63
:1021500010E020E830E041E150E060E070E08EEA1D
:1021600098E00E94542E1F910F91FF90EF90DF9006
:10217000CF900895CF92DF92EF92FF920F931F932B
:10218000CF93DF93CDB7DEB768970FB6F894DEBF75
:102190000FBECDBF66DE2091E9053091EA05809142
:1021A0001002909111022817390709F464C13FE128
:1021B000E32EF12C0CE110E021E630E048E250E0A3
:1021C00063E070E08EEA98E00E94542E8FEF9FEF5C
:1021D0009093C1088093C0089093BF088093BE0875
:1021E00081E08093C40884E08093C2088091E9056F
:1021F0009091EA058031974218F083E090E002C0A8
:1022000089E190E09093BB088093BA0888E290E05F
:102210009093BD088093BC088091E9059091EA05F0
:1022200028EEC22E23E0D22EB6010E942F47AB012A
:1022300060E070E02AE08EEA98E00E94030908E27C
:1022400010E01093BB080093BA081093BD080093E8
:10225000BC0862E273E08EEA98E030D889E390E04F
:102260009093BB088093BA081093BD080093BC08F4
:102270008091E9059091EA051C8A1B8A1E8A1D8AB5
:10228000188E1F8AB6010E942F474AE0BE016F5F79
:102290007F4F0E940540BE016F5F7F4FCE01439686
:1022A0000E9475088F89988D81309105C9F41A8232
:1022B00019821C821B821E821D82BE016D5E7F4FB1
:1022C000CE0101960E948A0865EA73E0CE0101966C
:1022D0000E944D08BC01CE0143960E948A0851C05D
:1022E000039708F452C06BE973E0CE0101960E9497
:1022F000D3088F89988D0097C9F0029718F002E0F3
:1023000010E002C001E010E0EB89FC89E00FF11F52
:10231000D08010826B897C89CE0101960E9475085D
:102320008B899C89FC01E00FF11FD0828B899C89ED
:102330000097A9F069817A816115710571F04D8965
:102340005E892D813E814217530738F00E94134B5E
:102350008D819E81988F8F8B12C00E9469498981DF
:102360009A819C8B8B8B8B819C819E8B8D8B8D819D
:102370009E81988F8F8B1A8219821C821B821E82EB
:102380001D82CE0101960E949F084F89588D6B894E
:102390007C898EEA98E00E940B0687E690E0909395
:1023A000BB088093BA088CE390E09093BD088093BB
:1023B000BC08DD24D394D092C20867EA73E08EEAA9
:1023C00098E00E945E098FE1E82EF12C0CE110E00C
:1023D0002CE330E040E550E06CE270E08EEA98E0FB
:1023E0000E94542E84E08093C2088DE290E0909386
:1023F000BB088093BA0880E590E09093BD08809375
:10240000BC084091DF055091E00560E070E02AE0F3
:102410008EEA98E00E940309D092C20884E190E01D
:102420009093BB088093BA0884E690E09093BD082F
:102430008093BC086CEA73E08EEA98E00E945E0923
:10244000E12C98EFF92E06E110E020E230E049EBB4
:1024500054E06AE870E080E090E00E94E12880911A
:10246000E9059091EA059093110280931002CE0144
:1024700043960E949F0868960FB6F894DEBF0FBE81
:10248000CDBFDF91CF911F910F91FF90EF90DF9023
:10249000CF9008950F931F93CF93DF931F921F92B6
:1024A000CDB7DEB78C010E94E71B8983C8010E946B
:1024B000E71B8A8389819A810F900F90DF91CF91DA
:1024C0001F910F910895CF93DF93EC01FB0182815F
:1024D00093819B838A8384819581A681B7818C8334
:1024E0009D83AE83BF8380859185A285B3858887D0
:1024F0009987AA87BB8780E292E0998388838DE0E1
:102500003C96DE011C9601900D928A95E1F7FB0145
:10251000818D928D9A8F898FDF91CF910895CF927F
:10252000DF92EF92FF920F931F93CF93DF93EC0113
:1025300097FF03C0D195C195D10960EB73E084E7A3
:1025400097E00E945E09BE0184E797E00E94183080
:10255000C130D10521F0229709F081C133C181DC5E
:102560001092BB081092BA0884E190E09093BD08E5
:102570008093BC0880EE9FEF9093C1088093C008C1
:102580009093BF088093BE0881E08093C208809337
:10259000C4086091B5057091B6058EEA98E00E9476
:1025A000183062EC73E08EEA98E00E945E09609158
:1025B000DB057091DC058091DD059091DE050E94C0
:1025C00077326AEC73E08EEA98E00E945E096091CF
:1025D000D7057091D8058091D9059091DA050E94B0
:1025E000773262ED73E08EEA98E00E945E096091B6
:1025F000D3057091D4058091D5059091D6050E94A0
:1026000077326DED73E08EEA98E00E945E0960918A
:10261000CF057091D0058091D1059091D2050E948F
:10262000773268EE73E08EEA98E00E945E0960916E
:10263000CD057091CE058EEA98E00E94183062EFC9
:1026400073E08EEA98E00E945E096091C705709180
:10265000C8058091C9059091CA050E9477326CEF38
:1026600073E08EEA98E00E945E0983E20E94030A0A
:10267000BC018EEA98E00E9418306CE074E08EEAAB
:1026800098E00E945E09C090BB05D090BC05E09028
:10269000BD05F090BE050091BF051091C0052091C9
:1026A000C1053091C2054091C3055091C4056091A8
:1026B000C5057091C60583E194E00E949C29BC0188
:1026C0008EEA98E00E944E0969E174E08EEA98E093
:1026D0000E945E09C090BB05D090BC05E090BD058E
:1026E000F090BE050091BF051091C0052091C10575
:1026F0003091C2054091C3055091C4056091C50554
:102700007091C60580E294E00E949C29BC018EEA8B
:1027100098E00E944E0966E274E08EEA98E00E941A
:102720005E096091B7057091B8058091B9059091E7
:10273000BA050E94773263E374E08EEA98E00E9463
:102740005E094091E9055091EA0560E070E02AE0F9
:102750008EEA98E00E9403098EEA98E00E944B09F5
:102760006BE374E08EEA98E00E945E094091DF0519
:102770005091E00560E070E02AE08EEA98E00E9467
:1027800003098EEA98E00E944B0965E474E08EEA42
:1027900098E00E945E096091CB057091CC058EEAAD
:1027A00098E00E9418306EE474E08EEA98E00E948F
:1027B0005E0988E30E94960ABC018EEA98E00E94B6
:1027C00018304EC04EDB8FEF9FEF9093C10880937F
:1027D000C0089093BF088093BE0881E08093C4082E
:1027E00082E08093C2088AE090E09093BB088093D7
:1027F000BA088CE390E09093BD088093BC0861E533
:1028000074E08EEA98E00E944E098FE1E82EF12CE8
:102810000EE010E023E230E040E550E068E270E0D6
:102820008EEA98E00E94542E88E290E09093BB08D4
:102830008093BA0880E590E09093BD088093BC082F
:1028400085E20E94030A019719F46BE574E002C067
:102850006EE574E08EEA98E00E945E0901C08ADCB1
:102860008091B5059091B60590931106809310065E
:10287000DF91CF911F910F91FF90EF90DF90CF905C
:102880000895DC015996ED91FC915A973097B9F073
:1028900083899489A589B689428553856485758520
:1028A000841B950BA60BB70B811520E89207A10599
:1028B000B10538F08FEF9FE7A0E0B0E0089580E029
:1028C00090E00895CF93DF931F92CDB7DEB7698371
:1028D000DC01ED91FC910280F381E02D41E050E0BC
:1028E000BE016F5F7F4F19950F90DF91CF910895D3
:1028F000611102C060E201C061E20C94D92D1F9306
:10290000CF93DF93EC01162F66E30E94D92D612F40
:1029100063706D8B8A8D623089F16330A9F161300B
:10292000D1F0823011F460EC01C068ECCE010E945D
:10293000A32D80E890E0998788878A8D813019F4EB
:1029400080E890E002C080EA90E09B878A87DF9170
:10295000CF911F910895823011F460EA01C068EAB6
:10296000CE010E94A32D8A8D813019F480E890E079
:1029700002C080EA90E099878887E2CF823011F424
:1029800060E0D4CF68E0D2CF823011F460E6E8CFC7
:1029900068E6E6CF8F929F92AF92BF92CF92DF927E
:1029A000EF92FF920F931F93CF93DF93EC018D81F2
:1029B000811102C080E076C00B891C892D893E8977
:1029C0000417150726073707A8F36A017B01823031
:1029D00029F4CA86DB86EC86FD860DC0C114D104BD
:1029E000E104F10451F41E821F82188619861A86AA
:1029F0001B861C861D8681E055C08A849B84AC841E
:102A0000BD84EB8DFC8D258530E0275F3F4FB50100
:102A1000A4014150510961097109022E04C0769543
:102A20006795579547950A94D2F7D701C601019744
:102A3000A109B10904C0B695A795979587952A95E0
:102A4000D2F784179507A607B70720F089288A28A8
:102A50008B2849F44F89588D698D7A8D4E835F8319
:102A60006887798704C0841B950BA60BB70B4C01B4
:102A70005D018E010A5F1F4F81149104A104B1040E
:102A800009F4A7CF4E815F816885798598018B8D88
:102A90009C8D74D891E0891A9108A108B108811120
:102AA000EBCF88CFDF91CF911F910F91FF90EF90E7
:102AB000DF90CF90BF90AF909F908F9008953F92FE
:102AC0004F925F926F927F928F929F92AF92BF923E
:102AD000CF92DF92EF92FF920F931F93CF93DF93EA
:102AE000CDB7DEB72C970FB6F894DEBF0FBECDBFC3
:102AF0005C01DC015B968D909C905C971696CD9066
:102B0000DD90ED90FC901997C114D104E104F1041B
:102B100039F0BFEFCB1ADB0AEB0AFB0A312C07C0F6
:102B2000F401C080D180E280F38033243394F40137
:102B300081859285A385B4859C01AD012F5F3F4FB0
:102B40004F4F5F4F29873A874B875C8726013701B4
:102B50001D821E821F821886F40181859285A385BD
:102B6000B4852D813E814F815885281739074A0742
:102B70005B0708F063C089859A85AB85BC858C1599
:102B80009D05AE05BF0550F482E0C82ED12CE12C86
:102B9000F12C92E0492E512C612C712C9E012F5F5B
:102BA0003F4FB701A601C4010E94BE0D882309F45E
:102BB00045C089819A81AB81BC81892B8A2B8B2B63
:102BC00041F0260137019FEF491A590A690A790A2B
:102BD00005C0C414D504E604F70491F02D813E81AC
:102BE0004F8158852F5F3F4F4F4F5F4F2D833E835F
:102BF0004F8358873FEFC31AD30AE30AF30AACCFD7
:102C00000FEF1FEF2FEF3FE0B301A201C4010E94BD
:102C10001F0D882399F0D50116964D915D916D9108
:102C20007C911997411551056105710549F0930192
:102C30008201C4010E941F0D811102C080E02AC0E0
:102C4000D50116964D925D926D927C921997332024
:102C500051F0D301C2010196A11DB11DF401808381
:102C60009183A283B383F5018789908DA18DB28D65
:102C7000892B8A2B8B2B69F4D50157964D925D9247
:102C80006D927C925A9714968C9114978068149642
:102C90008C9381E02C960FB6F894DEBF0FBECDBFAB
:102CA000DF91CF911F910F91FF90EF90DF90CF9028
:102CB000BF90AF909F908F907F906F905F904F905C
:102CC0003F900895CF93DF93EC0180911606811118
:102CD00009C081E080931606809111089091120836
:102CE0000E94A02D60E08C81DF91CF910C942B0A83
:102CF00061E0FC0184810E942B0A809116068823E2
:102D000021F0109216060C94712D08958FEF0C94FB
:102D1000722D0F931F93CF93DF93EB010E94ED0A67
:102D20008B01F4DF8F3F49F00E94ED0A601B710BAD
:102D30006C177D07B0F380E001C081E0DF91CF9197
:102D40001F910F910895CF93DF93EC018E8188231B
:102D500079F08F8198859C012F5F3F4F38872F83B3
:102D60008230924010F4D2DFF4CFCE01C1DF1E8258
:102D7000DF91CF910895CF92DF92FF920F931F932F
:102D8000CF93DF9300D01F92CDB7DEB76C01F62E44
:102D900029833A834B835C83D6DFC60193DF6CE2E1
:102DA00071E0C601B6DF8F2D80640E94722D08E1AC
:102DB00010E05C814B813A812981DA01C901002E42
:102DC00004C0B695A795979587950A94D2F729835D
:102DD0003A834B835C830E94722D0850110929812C
:102DE0003A814B815C81083F8FEF180731F7FF2054
:102DF00029F0E8E0FE1204C087E803C085E901C0BD
:102E00008FEF0E94722D10E081DFF601828787FF2D
:102E100004C01F3F11F01F5FF7CF0F900F900F906E
:102E20000F90DF91CF911F910F91FF90DF90CF9086
:102E30000895AF92BF92CF92DF92EF92FF920F93DD
:102E40001F93CF93DF93EC016901C801820F931F99
:102E50008130924008F06AC08E81882371F08881A9
:102E60009981AA81BB81481759076A077B0729F412
:102E70008F819885C816D90698F5488359836A8347
:102E80007B838B85833039F089E0440F551F661FA3
:102E9000771F8A95D1F79A01AB0161E1CE016BDF13
:102EA000882319F083E08D8341C00E94ED0A5B0105
:102EB0002DDF8A878F3F49F40E94ED0A6A197B094A
:102EC0006D327140A8F38FE003C08E3F29F08DE092
:102ED0008D83CE010DDF2AC018861F8281E08E838C
:102EE0008F8198858C159D0538F410DF8F8198852A
:102EF000019698878F83F4CF6701E00EF11ECE1400
:102F0000DF0429F003DFF60181936F01F8CF8F8191
:102F10009885080F191F18870F838985882319F052
:102F20000115124038F0CE010EDF04C0CE01E0DE04
:102F300080E001C081E0DF91CF911F910F91FF9060
:102F4000EF90DF90CF90BF90AF9008952F923F9277
:102F50004F925F926F927F928F929F92AF92BF92A9
:102F6000CF92DF92EF92FF920F931F93CF93DF9355
:102F7000EC016B014A018D81811103C08FEF9FEF3E
:102F8000D6C08C8180FFFACF4B885C886D887E88A4
:102F90004A855B856C857D85C401A0E0B0E0930126
:102FA0008201041B150B260B370B081719072A077C
:102FB0003B0718F44201841A950A54011E0126E0C9
:102FC000220E311CA114B10409F47EC04A855B8530
:102FD0006C857D852A0181E05822ED818A019B0163
:102FE00089E036952795179507958A95D1F78B8DAA
:102FF0009C8DE23061F4FC01828D938DA48DB58DA2
:10300000BC01CD01600F711F821F931F3FC0FC01E7
:1030100074807A94702241145104C9F4711017C05D
:10302000452B462B472B49F48F89988DA98DBA8D56
:103030008E839F83A887B9870AC04E815F81688588
:10304000798591010E94BE0D882309F497CFEB8DFD
:10305000FC8D8E819F81A885B9850297A109B10950
:10306000058404C0880F991FAA1FBB1F0A94D2F7BA
:103070004685578560897189840F951FA61FB71FE4
:10308000BC01CD01670D711D811D911D20E032E055
:103090002419350935012A153B0508F439012C811D
:1030A00026FD04C06114F2E07F0681F40091120253
:1030B00010911302209114023091150260177107CC
:1030C00082079307B1F402C0C40131C040E00E94FE
:1030D000D60C882309F452CFF201E152F74FD60102
:1030E000CF01860D971DE817F90781F021912D93E7
:1030F000FACF760183019201AB01BC0180915F069A
:103100009091600696DE882309F438CFC60CD71C50
:103110008A859B85AC85BD85860D971DA11DB11D3A
:103120008A879B87AC87BD87A618B7084BCFDF91EE
:10313000CF911F910F91FF90EF90DF90CF90BF90B4
:10314000AF909F908F907F906F905F904F903F9047
:103150002F900895EF92FF920F931F93CF93DF93D9
:10316000EC017901411551056105710511F482E108
:1031700038C08B85833039F089E0440F551F661FB6
:10318000771F8A95D1F79A01AB0168E1CE01F3DD93
:10319000882311F084E025C08EEF0E94722D8701F4
:1031A0008EEFF81AF80181918F010E94722D0E1591
:1031B0001F05C1F78FEF0E94722D8FEF0E94722DB5
:1031C000A5DD8A878F71853029F081E18D83CE015D
:1031D0008FDD08C068E572E0CE019BDD811106C07D
:1031E00085E18D83CE0184DD80E010C020E030E0F9
:1031F000A9016DE0CE01BFDD811103C087DD882309
:1032000011F084E1EECFCE0173DD81E0DF91CF914B
:103210001F910F91FF90EF9008958091DE08882311
:1032200099F1409112025091130260911402709131
:1032300015022FED38E080915F06909160068ADFDD
:10324000811102C080E00895409103065091040668
:1032500060910506709106064115510561057105DD
:1032600089F02FED38E080915F069091600672DF63
:10327000882341F31092030610920406109205066B
:10328000109206061092DE0881E00895CF93DF9336
:10329000EC018D81882399F18C8187FF2DC06E858B
:1032A0007F858889998941E00E94D60C882339F16D
:1032B000EA8980E2E89FF0011124DF01A152B74FB3
:1032C0001097E9F08D81823050F44B895C896D89CB
:1032D0007E895C964D935D936D937C935F978F8908
:1032E000988DA98DBA8DE152F74F938F828FB58B50
:1032F000A48B8C818F778C83DF91CF918ECF80E0F0
:10330000DF91CF910895CF93DF93EC01BFDF882346
:1033100011F01D8281E0DF91CF910895FC01818D34
:10332000928D009709F0B2CF08952F923F924F925D
:103330005F926F927F928F929F92AF92BF92CF9245
:10334000DF92EF92FF920F931F93CF93DF9300D002
:103350001F92CDB7DEB78C015B011A01DC01159617
:103360008C9115978130C1F414968C9181FF14C013
:1033700082FF1AC0F801438954896589768982855C
:103380009385A485B58584179507A607B70761F0CF
:10339000C80100DB811108C081E090E0F80193834F
:1033A000828380E090E035C1610182C0D8015B96E4
:1033B0008D919C915C97FC01248121502A013B0155
:1033C00039E076946794579447943A95D1F7722EE2
:1033D00074207A01F1E0FF22772009F475C080E0C3
:1033E00092E08E199F0946018C159D0508F44C0149
:1033F000D8015B962D913C915C9716968D919D918D
:103400000D90BC91A02D0297A109B109F901058485
:1034100004C0880F991FAA1FBB1F0A94D2F74685C4
:10342000578560897189840F951FA61FB71F9C015E
:10343000AD01270D311D411D511D29013A01811496
:1034400032E0930609F086C0809112029091130237
:10345000A0911402B091150284159505A605B70533
:1034600059F48FEF9FEFDC018093120290931302C7
:10347000A0931402B09315029501B301A2018091AB
:103480005F069091600666DE882309F485CF9EEF83
:10349000B91AC818D908F80182859385A485B5851D
:1034A000880D991DA11DB11D82879387A487B587BB
:1034B000D8011A964D915D916D917C911D97C11423
:1034C000D10409F073CF85C0E114F10409F087CF6E
:1034D00016964D915D916D917C911997411551050D
:1034E0006105710559F457968D919D910D90BC9190
:1034F000A02D0097A105B10539F521C09E012F5FD0
:103500003F4F0E94BE0D882309F44CCF89819A81D8
:10351000AB81BC81F801238D348DF90127892031DD
:1035200029F048EF5FEF6FEF7FE004C048EF5FEFF7
:1035300060E070E084179507A607B70728F0C80178
:10354000BEDA81114CCF28CFF80186839783A087FC
:10355000B18745CFE114F10421F5D8011A964D91B8
:103560005D916D917C911D9753968D919D910D90DC
:10357000BC91A02D481759076A077B0790F04DDED4
:10358000882309F409CF40921202509213026092EC
:103590001402709215028091DE0881608093DE082B
:1035A00008C041E0C301B2010E94D60C882309F48F
:1035B000F3CED501F701E152F74FCF01880D991DE8
:1035C000E817F90719F02D912193FACFA80CB91C2F
:1035D00060CF53968D919D910D90BC91A02D841735
:1035E0009507A607B70740F4F801438B548B658B0A
:1035F000768B848180688483D80114968C9183FDB6
:1036000002C0C10106C0C80141DE882309F4C4CE4E
:10361000F8CF0F900F900F900F90DF91CF911F91E7
:103620000F91FF90EF90DF90CF90BF90AF909F9061
:103630008F907F906F905F904F903F902F90089564
:10364000CF93DF931F92CDB7DEB7698341E050E09F
:10365000BE016F5F7F4F69DE0F90DF91CF910895BC
:10366000CF93DF93EC01898D9A8D009739F481E037
:1036700090E09B838A8380E090E00AC0FC01138283
:10368000128253DEE98DFA8D22813381232B79F763
:10369000DF91CF910895FC01DB0112968D919C91F1
:1036A00013979383828386E692E0918380831496B6
:1036B0008C911497848315968C9115978583169613
:1036C0004D915D916D917C911997468357836087E9
:1036D00071871A964D915D916D917C911D974287EE
:1036E0005387648775871E964D915D916D917C918E
:1036F000519746875787608B718B52968C91529762
:10370000828B53964D915D916D917C915697438B31
:10371000548B658B768B57964D915D916D917C9115
:103720005A97478B508F618F728F5B968D919C91CA
:103730005C97948F838F0895EF92FF920F931F935E
:10374000CF93DF93EC017B018A011B821A8288EE02
:1037500093E0A0E0B0E08C839D83AE83BF8380E2E2
:1037600092E0998388838DE190E00E94D4489A8FFB
:10377000898F009779F02DE1F701DC0101900D921E
:103780002A95E1F74CE050E0B801CE010C960E947A
:103790002A4B188EDF91CF911F910F91FF90EF90E0
:1037A0000895CF93DF931F92CDB7DEB741E050E08D
:1037B000BE016F5F7F4FCADB019719F4898190E0EA
:1037C00002C08FEF9FEF0F90DF91CF910895FC0122
:1037D000818D928D009709F0E4CF8FEF9FEF0895D0
:1037E0000F931F93CF93DF93FC01818D928D0097F0
:1037F000A9F0EF01D6DF8C010F3F8FEF180789F09A
:10380000898D9A8DFC01428553856485758541506B
:10381000510961097109BED8C80105C080E090E076
:1038200002C08FEF9FEFDF91CF911F910F9108950D
:103830006F927F928F929F92AF92BF92CF92DF92C0
:10384000EF92FF920F931F93CF93DF93EC014B0105
:103850005A0169013801E881F9810680F781E02D7C
:103860001995E881F9810684F785E02D8701960195
:10387000A501B401CE011995E881F981A501460D94
:10388000571D415051090684F785E02D9601B4017A
:10389000CE011995E881F9810484F585E02D930125
:1038A000A501B401CE011995E881F981C80CD91C94
:1038B000B601615071090484F585E02D9301A501DD
:1038C000CE011995E881F9810288F389E02DCE01B6
:1038D000DF91CF911F910F91FF90EF90DF90CF90EC
:1038E000BF90AF909F908F907F906F901994CF92E0
:1038F000DF92EF92FF920F931F93CF93DF9300D04D
:1039000000D0CDB7DEB76C01DC01ED91FC91621700
:10391000730789F4041715072CF4942F852FA80139
:10392000092F182F041B150B98012F5F3F4F008C98
:10393000F18DE02D12C04017510709F52617370702
:103940002CF4962F872FB901292F382F261B370BE0
:103950002F5F3F4F028CF38DE02D8701C601199533
:1039600026960FB6F894DEBF0FBECDBFDF91CF9184
:103970001F910F91FF90EF90DF90CF9008950680F8
:10398000F781E02D2D833E834B835C8369837A83AB
:103990001995D601ED91FC910088F189E02D2D81DA
:1039A0003E814B815C8169817A81C6011995D6017E
:1039B000ED91FC910288F389E02DC60126960FB6A1
:1039C000F894DEBF0FBECDBFDF91CF911F910F9155
:1039D000FF90EF90DF90CF901994EF92FF920F93AA
:1039E0001F93DC01ED91FC9111971A960D911C919A
:1039F0001B9718962D913C911997048CF58DE02D0D
:103A00007B0140E050E060E070E019951F910F915C
:103A1000FF90EF9008954F925F926F927F928F92F6
:103A20009F92AF92BF92CF92DF92EF92FF920F934D
:103A30001F93CF93DF931F921F92CDB7DEB76C0118
:103A40005A0139014801DC01ED91FC910680F781B2
:103A5000E02D69837A8319956981462E7A81572EE4
:103A6000640C751CD601ED91FC91461457046CF45E
:103A70000484F585E02D87019401A501B201C601FA
:103A80001995BFEF4B1A5B0AEDCF0288F389E02D41
:103A9000C6010F900F90DF91CF911F910F91FF9072
:103AA000EF90DF90CF90BF90AF909F908F907F90DE
:103AB0006F905F904F901994AF92BF92CF92DF9228
:103AC000EF92FF920F931F93CF93DF9300D01F923B
:103AD000CDB7DEB75C016901DC01ED91FC91068098
:103AE000F781E02D4B835C8369837A831995D50137
:103AF000ED91FC9169817A819B012C0D3D1D215036
:103B000031090088F189E02D78014B815C818A01BF
:103B1000C5011995D501ED91FC910288F389E02D3D
:103B2000C5010F900F900F900F90DF91CF911F91D3
:103B30000F91FF90EF90DF90CF90BF90AF901994CE
:103B4000AF92BF92CF92DF92EF92FF920F931F93AB
:103B5000CF93DF9300D01F92CDB7DEB75C01690130
:103B6000DC01ED91FC910680F781E02D4B835C83B5
:103B700069837A831995D501ED91FC914B815C8124
:103B8000C40ED51EB1E0CB1AD1080088F189E02D12
:103B90007801860169817A819B01C5011995D5015A
:103BA000ED91FC910288F389E02DC5010F900F90F3
:103BB0000F900F90DF91CF911F910F91FF90EF9099
:103BC000DF90CF90BF90AF9019940895EF92FF923D
:103BD0000F931F93DC01ED91FC91048CF58DE02D8A
:103BE00019951F910F91FF90EF9008950F931F93D8
:103BF000DC01ED91FC91028CF38DE02D19951F9164
:103C00000F9108950F931F93DC01ED91FC91008CAF
:103C1000F18DE02D19951F910F910895DC01ED9123
:103C2000FC910480F581E02D199408952F923F9224
:103C30004F925F926F927F928F929F92AF92BF92BC
:103C4000CF92DF92EF92FF920F931F93CF93DF9368
:103C500000D0CDB7DEB74C017B836A836A0159017E
:103C600017019801241B350B37FF03C031952195AF
:103C70003109C5014A815B81841B950B97FF03C005
:103C800091958195910951E059838217930714F01A
:103C900019820BC09A2D8B2D5801092F182F9A814C
:103CA0008B81DB82CA82C92ED82E8A819B81A8167D
:103CB000B9065CF49C2D8D2D6801092F182F9A816F
:103CC0008B81BB82AA82A92EB82E2501AA81BB8135
:103CD0004A1A5B0A38016C187D0877FE03C071949C
:103CE00061947108720157FE03C0BFEFEB1AFB0A23
:103CF000F594E794C016D1061CF00FEF1FEF1FC01C
:103D000001E010E01CC0D401ED91FC91B981008468
:103D1000F185E02D9101BB23C1F04A815B81B601A1
:103D2000C4011995E618F708F7FE04C0C00ED11EAD
:103D3000E40CF51CEA81FB813196FB83EA834A811E
:103D40005B81A416B506FCF604C0A6016A817B81DE
:103D5000E7CF0F900F900F90DF91CF911F910F91B0
:103D6000FF90EF90DF90CF90BF90AF909F908F909B
:103D70007F906F905F904F903F902F90089585EDCA
:103D80008093BC008091BC0084FDFCCF1092A706FC
:103D9000089540913906262F30E0240F311D21323D
:103DA0003105DCF42091A7062430C9F4FC0180E041
:103DB00090E0861758F4309139062191DC01A95E14
:103DC000B94FA30FB11D2C930196F3CF8091390603
:103DD000680F6093390680E0089581E0089582E0DD
:103DE00008950895E091E00A8091DF0AE81730F421
:103DF000F0E0EF59F94F808190E008958FEF9FEF49
:103E000008959091E00A8091DF0A981750F4E92F05
:103E1000F0E0EF59F94F208130E09F5F9093E00A86
:103E200002C02FEF3FEFC90108958091DF0A90E0B3
:103E30002091E00A821B91090895CF92DF92EF92C0
:103E4000FF920F931F93CF93DF937C01262F972F21
:103E50008A018091A806882391F0C62FD72F6E0182
:103E6000C40ED51ECC15DD0569F06991D701ED9121
:103E7000FC910190F081E02DC7011995F3CF642FDB
:103E8000822F87DFC801DF91CF911F910F91FF90A3
:103E9000EF90DF90CF900895CF93DF931F92CDB72F
:103EA000DEB769832091A8062223D1F02091CA06AB
:103EB000203240F021E030E0FC013383228380E0B7
:103EC00090E014C08091A906E82FF0E0E655F94F84
:103ED000998190838F5F8093A9068093CA0604C05E
:103EE00061E0CE01019655DF81E090E00F90DF9117
:103EF000CF9108952F923F924F925F926F927F924F
:103F00008F929F92AF92BF92CF92DF92EF92FF92E9
:103F10000F931F93CF93DF93CDB7DEB76C970FB698
:103F2000F894DEBF0FBECDBF9C8F8B8F5B011A0153
:103F30001F830E833701C982DC0158964D915C9135
:103F400059974115510509F0E5C018968D919C913E
:103F50001997681779070CF0CAC11A968D919C9130
:103F60001B97281639060CF0C2C18C2C912CFB0132
:103F700036E0C39EE00DF11D1124FB87EA871E1673
:103F80001F060CF0B4C1C40133E0880F991F3A95A5
:103F9000E1F79D878C87820D931D181619060CF08A
:103FA000A6C157968C91811103C0203B08F02F5F6A
:103FB000AB8DBC8DED91FC9111970680F781E02DC2
:103FC000CD012A8F19952A8DB5E02B9F90011124E0
:103FD000F5013596FF87EE87BB82AA822501A901EC
:103FE0004A195B09598B488BC10108969B8B8A8BB8
:103FF000E889F989E40DF51DE057F94F9491988708
:1040000061013D822C82A885A0FF13C0AB8DBC8DC1
:10401000ED91FC91B981B13031F40084F185E02D4E
:104020002E813F8116C00284F385E02DEE80FF8053
:104030001AC0EE81FF816E167F06F1F0AB8DBC8D4C
:10404000ED91FC91B981B13051F40084F185E02DFE
:104050009301A601B2018B8D9C8D19950DC0028430
:10406000F385E02D7301840194014C815D816A81A7
:104070007B818B8D9C8D1995E885E695E887FFEF10
:10408000CF1ADF0A2C813D81280D391D3D832C83F9
:104090004A895B89C416D50609F0B5CF5FEF451A8A
:1040A000550A8A819B81880D991D9B838A83AE85E1
:1040B000BF854A165B0609F09BCFEE81FF816E1625
:1040C0007F0609F4F2C0EB8DFC8DA081B181F981EE
:1040D000F13079F4B5016B5F7F4F1C96ED91FC9147
:1040E0001D97830128E030E0A1018B8D9C8D1995EF
:1040F000DCC06A857B85681979091A96ED91FC9177
:104100001B9773010C851D859401A1018B8D9C8DDE
:104110001995CBC0FA0134969491329765917491B8
:10412000291BCB01B7E02B9F800D911D1124FA01B3
:10413000259134913B8B2A8BFC01459154915B83F3
:104140004A83FC013296C490319654915E87329630
:1041500014913196D4908981823058F0612E012ECD
:10416000000C7708AD2D0D2C000CBB0BB987A88770
:1041700004C019861886612C712CAB8DBC8DED9115
:10418000FC9111970680F781E02DCD011995B98139
:104190008B2E912C689CC001699C900D789C900D91
:1041A0001124FC01EA0DFB1DFD87EC871C82712C9C
:1041B000612CE12F110FFF0B95012E0F3F1F3B8745
:1041C0002A87AC0CB11CA5014E0F5F1F5F8B4E8B75
:1041D000C1018D0D911DD7FC9A95998F888F4E85C1
:1041E000641608F062C0862D90E048855985480F16
:1041F000591F489D9001499D300D589D300D112447
:10420000D901A20DB31DB98BA88BAA84BB844C84A1
:104210005D84DC80BA85DB1AE88DF98DE80FF91F23
:10422000FD8BEC8B8D2D8A0D2E893F89A216B3064E
:10423000B9F1877061F48A819B810196EA89FB89D3
:10424000AA81BB81EA0FFB1F74909B838A8377FE50
:1042500020C0AB8DBC8DED91FC91B981B13061F482
:104260000084F185E02D2E813F814C895D89B50167
:104270008B8D9C8D19950DC00284F385E02DEE8009
:10428000FF808401940148895989B2018B8D9C8DEE
:104290001995770CEFEFAE1ABE0A480C591CC2CF25
:1042A0003C813C0D3C8363949ACFAB8DBC8DED91EA
:1042B000FC9111970288F389E02DCD016C960FB621
:1042C000F894DEBF0FBECDBFDF91CF911F910F914C
:1042D000FF90EF90DF90CF90BF90AF909F908F9026
:1042E0007F906F905F904F903F902F9019946C96B5
:1042F0000FB6F894DEBF0FBECDBFDF91CF911F91F7
:104300000F91FF90EF90DF90CF90BF90AF909F9074
:104310008F907F906F905F904F903F902F90089577
:10432000CF93CFB7F89480915E06811127C0EBEB55
:10433000F3E08491EBE5F3E09491E82FF0E0EE0FE9
:10434000FF1FE15CFB4FA591B491EC91E92321F4AF
:1043500061E085E30E942B0A61E085E30E945A0A2E
:104360008CB580618CBD8CB580648CBD61E084E3CC
:104370000E945A0A61E083E30E945A0A80915E0615
:104380008F5F80935E06CFBFCF9108951F920F92EB
:104390000FB60F9211240BB60F922F933F934F93AA
:1043A0005F936F937F938F939F93AF93BF93EF939D
:1043B000FF938091B900887F803609F49CC068F52E
:1043C000883209F45BC090F4803109F454C038F4A9
:1043D000882309F4F6C0883009F44DC0F5C088314F
:1043E00009F44CC0803209F45DC0EEC0803409F499
:1043F00068C048F4803309F455C0883309F0E4C03C
:104400008093A506D8C0803509F44FC0883509F4DB
:104410005DC0883409F0D8C0D6C0883909F4C7C057
:10442000A8F4883709F467C038F4883609F463C003
:10443000803709F460C0C8C0883809F4B8C0803932
:1044400009F45FC0803809F0BFC05BC0803B09F44D
:1044500086C038F4803A09F466C0883A09F47FC00F
:10446000B3C0803C09F4A7C0883C09F4A4C0883BD1
:1044700009F48AC0A9C08091820610C09091A40658
:104480008091A306981770F5E091A40681E08E0F45
:104490008093A406F0E0ED57F94F80818093BB0034
:1044A00085EC86C08093A5068EC0E091A40681E0CD
:1044B0008E0F8093A4068091BB00F0E0ED57F94F7A
:1044C00080839091A4068091A3066EC0E091A4061B
:1044D00081E08E0F8093A4068091BB00F0E0ED5741
:1044E000F94F80838091A60681116DC081E0809391
:1044F000810684EA61C083E08093A70610925D067E
:10450000CFCF80915D06803208F051C0E0915D060A
:1045100081E08E0F80935D068091BB00F0E0E35C4C
:10452000F94F8083BDCF85EC8093BC001092A70625
:1045300080915D06803230F4E0915D06F0E0E35C4E
:10454000F94F108260915D0670E0E0913B06F091BA
:104550003C068DE396E0199510925D0635C084E027
:104560008093A70610923A0610923906E09137061A
:10457000F0913806199580913906811105C081E0C6
:104580008093390610921706E0913A0681E08E0F6B
:1045900080933A06F0E0E95EF94F80818093BB009A
:1045A00090913A0680913906981708F479CF85E8FA
:1045B0008093BC0009C085EC8093BC001092A706D4
:1045C00003C01092A506DBDBFF91EF91BF91AF9185
:1045D0009F918F917F916F915F914F913F912F911B
:1045E0000F900BBE0F900FBE0F901F9018950F935A
:1045F0001F93CF938C01FC0181810E94030A0197D4
:1046000011F4C2E001C0C0E0F80182810E94030AF7
:10461000019709F4CF5F8C2FCF911F910F910895CF
:104620000F931F93CF93DF9300D01F92CDB7DEB7C8
:104630008C01CDD88983C801CAD88A83C801C7D85C
:104640008B83C801C4D88C8369817A818B819C81DA
:104650000F900F900F900F90DF91CF911F910F91BE
:1046600008952F923F924F925F926F927F928F9216
:104670009F92AF92BF92CF92DF92EF92FF920F93F1
:104680001F93CF93DF93CDB7DEB7C15CD1090FB6CF
:10469000F894DEBF0FBECDBFCC56DF4F1982188213
:1046A000C459D04088EE93E0A0E0B0E0CA56DF4F96
:1046B00088839983AA83BB83C659D04080E292E065
:1046C000CE56DF4F99838883C259D040C555DF4FFE
:1046D00019821882CB5AD040C256DF4F1882CE5969
:1046E000D0400E94ED0AC254DF4F688379838A83E9
:1046F0009B83CE5BD0408091B6089091B708181686
:1047000019060CF059C38091B8089091B908181691
:1047100019060CF051C384E797E00E944B0968EE3C
:1047200074E084E797E00E945E0962E674E084E743
:1047300097E00E945E0967E284E797E00E94E7083D
:1047400084E797E00E944B096DE378E0CE01019683
:104750000E944B1BBE016F5F7F4FCE01865A9F4F59
:104760000E944B1B21961FAE1EAE219786E692E05B
:104770009EAF8DAF23961FAE2397A0968FADA097C7
:1047800081111AC0EB961FAE1EAEEB9788EE93E038
:10479000A0E0B0E0EF968CAF9DAFAEAFBFAFEF97AC
:1047A000C057DF4F19821882C059D040CD57DF4F14
:1047B0001882C358D0402DC0825042E654E0823067
:1047C00048F46DE378E0CE01CD960E94603081110F
:1047D0000FC0D8CFBE01665A7F4FCE01CD960E9442
:1047E0006030882379F2CE01865A9F4F0E94831948
:1047F000BE01635C7F4FCE0101960E944B1B42E6D7
:1048000054E0BE016F5F7F4FCE0189589F4F0E94D9
:104810009C1BEB968EAD9FADEB97CC56DF4F9983EB
:104820008883C459D040EF968CAD9DADAEADBFAD81
:10483000EF97CA56DF4F88839983AA83BB83C659F3
:10484000D040C158DF4F88819981AA81BB81CF5761
:10485000D040C656DF4F88839983AA83BB83CA5949
:10486000D0408DE0E7E7F0E0EC0FFD1F3C96A2E9B9
:10487000B0E0AC0FBD1F1C9601900D928A95E1F738
:10488000C057DF4FE881F981C059D040C555DF4F8F
:10489000F983E883CB5AD040309719F08581811194
:1048A00007C06DE674E084E797E00E945E0984C269
:1048B000BE016E567F4FCE0101960E946312CE015B
:1048C00001960E944A1282349D4411F010E054C2B5
:1048D0006CE774E084E797E00E945E09BE016E56C3
:1048E0007F4FCE0101960E946312CE01019698DEA1
:1048F0000E944D30BE016E567F4FCE0101960E9440
:104900006312CE0101968CDEBE016E567F4FCE0142
:1049100001960E946312CE01019682DE4B015C017A
:1049200068E874E084E797E00E945E09C501B4017D
:104930000E944D3067E974E084E797E00E945E09C9
:10494000BE016E567F4FCE0101960E946312CE01CA
:10495000019666DE0E944D30BE016E567F4FCE013D
:1049600001960E946312CE0101965ADE2B013C0192
:10497000BE016E567F4FCE0101960E946312CE019A
:1049800001964EDEC355DF4F688379838A839B830C
:10499000CD5AD040BE016E567F4FCE0101960E9487
:1049A0006312CE0101960E944A12019709F08ECF40
:1049B000BE016E567F4FCE0101960E946312CE015A
:1049C00001960E944A12182F65EA74E084E797E086
:1049D0000E945E09412F50E060E070E02AE084E729
:1049E00097E00E94030984E797E00E944B09183181
:1049F00009F06CCFBE016E567F4FCE0101960E942A
:104A00006312CE0101960CDECF54DF4F68837983A9
:104A10008A839B83C15BD040672B682B692B09F08D
:104A200055CF61EB74E084E797E00E945E09620174
:104A3000052C000CEE08FF08F7FE0EC06DE284E7BF
:104A400097E00E94E70844275527BA014C195D09F1
:104A50006E097F092AE003C02AE0B701A60184E7B6
:104A600097E00E940309C355DF4FE880F980CD5AD3
:104A7000D04068E784E797E00E94E708C355DF4F1E
:104A800068817981CD5AD04084E797E00E94183040
:104A9000C20101969C01220F331F820F931F8C7F4E
:104AA0009C01990F440B550BCB54DF4F288339835E
:104AB0004A835B83C55BD040F7FE0FC0C355DF4F11
:104AC000E880F980CD5AD040F194E194F108C354C4
:104AD000DF4F1882CD5BD04006C011E0C354DF4FDA
:104AE0001883CD5BD0408091B6089091B708120131
:104AF000841595050CF41C018091B8089091B908B3
:104B0000C355DF4FF982E882CD5AD0408E159F05FC
:104B100034F4C355DF4F99838883CD5AD040C355B1
:104B2000DF4F0881CD5AD04001502FEF220D40E0D9
:104B300060E08EEA98E00E94102EC701FF0CAA0BDD
:104B4000BB0B9C01AD012150310941095109CB54E6
:104B5000DF4F688179818A819B81C55BD0400E944B
:104B600014479B01AC01280D391D4A1D5B1DC7541C
:104B7000DF4F288339834A835B83C95BD040C12CD4
:104B8000D12C1CE3C355DF4FA881B981CD5AD04049
:104B9000CA16DB060CF0CEC0C354DF4F3881CD5BA4
:104BA000D0403323A9F0CF54DF4F488159816A8127
:104BB0007B81C15BD040C754DF4F88819981AA8136
:104BC000BB81C95BD040480F591F6A1F7B1F02C0C1
:104BD000B501A401C555DF4F88819981CB5AD040DA
:104BE000009779F0DC011A964D905D906D907C9065
:104BF0001D97441655066606770649F00E94CA14AA
:104C000005C04F3F5F4F6F4F7F4F09F01CE3612C92
:104C1000712C621473040CF069C01C3380F0C5550C
:104C2000DF4F88819981CB5AD040009739F04CE30F
:104C300050E0BE016F5F7F4F0E94A61710E0E1E0D9
:104C4000F0E0EC0FFD1FE10FF11DE08081E0810F2E
:104C5000E1E0F0E0EC0FFD1FE80FF11D808192E034
:104C6000910FE1E0F0E0EC0FFD1FE90FF11D1D5F7A
:104C70002081287F8C7FE8E08E9FC0011124922B39
:104C8000F12C23E0F594E7942A95E1F7E82AF92A34
:104C900080915C0890915D0853D7E091D008F09125
:104CA000D10890818091DA08892B8083E091CE0829
:104CB000F091CF0890818091D908809589238083D5
:104CC0006F2D8EEA98E015D76E2D8EEA98E011D7F9
:104CD000E091CE08F091CF0890818091D908892B7E
:104CE0008083FFD6FFEF6F1A7F0A93CF0FEFC01AB2
:104CF000D00ACF54DF4F288139814A815B81C15B63
:104D0000D040CB54DF4F88819981AA81BB81C55B9C
:104D1000D040281B390B4A0B5B0BCF54DF4F288345
:104D200039834A835B83C15BD040880E991EAA1EDB
:104D3000BB1E28CF6EEB74E084E797E00E945E090B
:104D40000E94ED0AAB01BC01C254DF4F08811981FA
:104D50002A813B81CE5BD040401B510B620B730B11
:104D60002AE084E797E00E94030969EC74E084E795
:104D700097E00E944E0911E0C555DF4F8881998167
:104D8000CB5AD040009781F00E948319C555DF4F60
:104D900088819981CB5AD0400E946949C555DF4F1F
:104DA00019821882CB5AD040111106C06DEC74E004
:104DB00084E797E00E944E09CF53DF4F0FB6F89477
:104DC000DEBF0FBECDBFDF91CF911F910F91FF903E
:104DD000EF90DF90CF90BF90AF909F908F907F909B
:104DE0006F905F904F903F902F900895EF92FF92B9
:104DF0000F931F93CF93DF9390917C089F3F39F4DB
:104E0000DF91CF911F910F91FF90EF906BC6D82F3C
:104E100007E010E0C0E0EE24E394F12CCC0F60E05A
:104E200080917C080E942B0AB701002E01C0660FFA
:104E30000A94EAF76D2380917A080E942B0A61E0B8
:104E400080917C080E942B0A80917B080E94030AB3
:104E5000892B09F0C1600150110900F78C2FDF91F7
:104E6000CF911F910F91FF90EF900895613208F05C
:104E700060E2DFD41092E00A8093DF0A0895CF93B6
:104E8000DF93C82F809179088F3FE9F480917008F3
:104E900014D56C2F8EE598E00E944C1F6DD462E013
:104EA00080917008E3DF8EE598E00E94011FC82F13
:104EB0008EE598E00E94011F20E030E03C2FE901E0
:104EC000C82BD92B24C080917C088F3F19F482E530
:104ED00091E036D660E0809179080E942B0A8C2FF1
:104EE000806884DF80E082DFC82F80E07FDF2C2FA6
:104EF00030E0322F2227E901C82B61E08091790848
:104F00000E942B0A80917C088F3F09F4EAD59C2FE0
:104F10008D2FDF91CF9108951092E00A1092DF0A51
:104F20001092A9061092CA061092A70681E08093FB
:104F3000A6061092810661E084E10E942B0A61E0DE
:104F400085E10E942B0AE9EBF0E080818E7F80836F
:104F500080818D7F808388E48093B80085E480938E
:104F6000BC0008958F929F92AF92BF92CF92DF9232
:104F7000EF92FF92CF93DF93C82F83E198E0909355
:104F8000600680935F06CC2369F1C53010F080E0A5
:104F90000DC140E060E070E0CB010E94D60C882398
:104FA000B1F320E1C29FC00111248153974FFC014E
:104FB000E254FE4F20812F7751F73C96408151817A
:104FC00062817381443651056105710500F33497A0
:104FD000C080D180E280F380C114D104E104F104E7
:104FE00021F4D5CFC12CD12C760140E0C701B60108
:104FF0000E94D60C882359F28091EA089091EB0820
:105000008115924021F6A091EF08AA2309F4BFCFA1
:105010006091ED087091EE086115710509F4B7CF44
:105020002091EC08222309F4B2CFA09331082093F9
:10503000230880E030E0E1E0F0E0C82FAF01082E67
:1050400002C0440F551F0A94E2F72417350741F0B8
:10505000982F8F5F983089F789E080932C0897CF3D
:1050600080932C082091F5083091F6082115310520
:1050700019F040E050E008C0209103093091040984
:105080004091050950910609209324083093250882
:10509000409326085093270846015701860E971E15
:1050A000A11CB11C8092320890923308A09234085F
:1050B000B0923508E091F008F091F108F0933808CB
:1050C000E0933708B0E00E94B643860E971EA81EF4
:1050D000B91E8092390890923A08A0923B08B0928B
:1050E0003C0885E0EE0FFF1F8A95E1F7E150FE4F87
:1050F000EF2FFF27E6958E0E9F1EA11CB11C8092FC
:105100002D0890922E08A0922F08B092300820917E
:10511000F2083091F3082115310521F0A90160E072
:1051200070E008C04091FF085091000960910109AA
:1051300070910209D701C60188199909AA09BB090A
:10514000840F951FA61FB71F04C0B695A795979506
:105150008795CA95D2F78093280890932908A09341
:105160002A08B0932B08853F2FE09207A105B105CF
:1051700010F48CE018C0853F9F4FA105B10510F4D5
:1051800080E111C080910B0990910C09A0910D094B
:10519000B0910E098093390890933A08A0933B0888
:1051A000B0933C0880E28093360881E0DF91CF9194
:1051B000FF90EF90DF90CF90BF90AF909F908F9037
:1051C00008953F924F925F926F927F928F929F923B
:1051D000AF92BF92CF92DF92EF92FF920F931F9305
:1051E000CF93DF93CDB7DEB728970FB6F894DEBF25
:1051F0000FBECDBF9E838D832B013A014901C901AA
:10520000079697FD07969C0193E0359527959A950B
:10521000E1F73A832983A12CB12CC12CD12C312C5C
:10522000F601E40DF51DFC83EB83C016D106D4F521
:1052300018861F822F813885281539055CF58F81E6
:10524000988587709927892B11F0330C0EC0EF8158
:10525000F885F7FD379683E0F595E7958A95E1F7B0
:10526000EA0DFB1DE60DF71D349037FE0DC09701CA
:105270004B815C816D817E818F819885680F791F5C
:105280008EEA98E00E940E1EEF81F8853196F8872D
:10529000EF83D0CF3FEFC31AD30A89819A81A80E3A
:1052A000B91EBECF28960FB6F894DEBF0FBECDBF95
:1052B000DF91CF911F910F91FF90EF90DF90CF90F2
:1052C000BF90AF909F908F907F906F905F904F9026
:1052D0003F900895DC01A05DB74050E0E0E9FBE0BD
:1052E00021E02E1B322F3E0F361728F43491430F46
:1052F000511D3196F7CF623029F49D012370332779
:10530000232BB9F02DE631E0A29FB001A39F700DD1
:10531000B29F700D11249C012D5C37403695279566
:1053200036952795CB01820F931F0197840F951F08
:1053300008954F5F5F4FE6CF2F923F924F925F925B
:105340006F927F928F929F92AF92BF92CF92DF9295
:10535000EF92FF920F931F93CF93DF93CDB7DEB7FA
:10536000C052D1400FB6F894DEBF0FBECDBFF82FAC
:10537000E92FC55FDE4FC882CB50D140C45FDE4FFE
:10538000D882CC50D140C05FDE4F1883C051D1408D
:10539000CF5EDE4F2883C151D140CD5EDE4F4883C2
:1053A000C351D140CC5EDE4F5883C451D140CB5E57
:1053B000DE4F6883C551D140CA5EDE4F7883C65147
:1053C000D140C55FDE4FA880B980CB50D1401E2DA3
:1053D0001982632E712CC301079667E070E00E946A
:1053E0004347E82EC25EDE4F9883CE51D1408F2DC9
:1053F0006AE00E942347C95EDE4F9883C751D140BF
:105400008F2E9E2E6E01D394250143E04422552415
:10541000812F90E0DC01A157B44FC15EDE4FB9830C
:10542000A883CF51D1402FEF210FC85EDE4F2883D4
:10543000C851D140822F90E0880F991FAC01445D84
:105440005D4FC65EDE4F59834883CA51D14031500B
:10545000C75EDE4F3883C951D140832F90E0880F5B
:10546000991F9C012C5B3D4FC45EDE4F398328831E
:10547000CC51D140B401D401ED914D01EE2309F49A
:1054800038C18E2FEE0F990BAA0BBB0BFC01E15418
:10549000F109EA33F10508F023C18827EC57FF4FE3
:1054A0008F4F0C9456471F92FF92DBC01F92FF92C2
:1054B000B4C0C75EDE4F3881C951D140373008F0E3
:1054C0005BC0C45EDE4FA881B981CC51D14051C0D0
:1054D000C75EDE4F2881C951D140273008F05FC038
:1054E000C45EDE4FA881B981CC51D14055C07F92B6
:1054F0006F9293C0C25EDE4F2881CE51D1402F9370
:10550000EF928BC041E061E0C501E4DE1C014F2D4C
:10551000612FC501DFDE821993099F937DC0C95EAB
:10552000DE4F3881C751D140313039F0323041F04F
:10553000333049F068E574E082C067E475E07FC00D
:1055400069E774E07CC060E075E079C01F921F934A
:1055500088C01F921F9361C0C85EDE4F2881C8516A
:10556000D1402C3048F4C65EDE4FA881B981CA51C3
:10557000D1406D917C9163C068EF74E060C0C85EFB
:10558000DE4F2881C851D1402C3048F4C65EDE4F32
:10559000A881B981CA51D1406D917C9102C068EF58
:1055A00074E043E050E09EC0C15EDE4FE881F981C7
:1055B000CF51D1408491123071F54114510409F456
:1055C00096C029C0BF92AF9228C0C501805D9740A8
:1055D0009F9346C081E041145104E9F080E01BC074
:1055E0001F920F933EC01F920F9317C0002329F004
:1055F0000D3028F084EF800F32C08CE030C0802F57
:105600002EC0002329F00D3028F084EF800F03C056
:105610008CE001C0802F1F928F9381E195E023C021
:105620000C3018F066E075E00AC063E075E007C072
:105630000C3018F06DEA73E002C069E075E0CE014D
:1056400001960E94FF4A16CFC05FDE4F8881C0518D
:10565000D14005C0CF5EDE4F8881C151D1401F923D
:105660008F938CE095E09F938F93DF92CF920E946F
:10567000394BB601CE0101960E94FF4A0F900F9060
:105680000F900F900F900F90F5CECA5EDE4F88817D
:10569000C651D1408F93CB5EDE4F8881C551D1403A
:1056A0008F93CC5EDE4F8881C451D1408F93CD5E05
:1056B000DE4F8881C351D1408F9384E195E09F9361
:1056C0008F93DF92CF920E94394BB601CE010196A3
:1056D0000E94FF4A0FB6F894DEBF0FBECDBFCACE00
:1056E00041E050E0CE0101960E941A4BC3CE8F5F7D
:1056F00092CFCE010196C05EDE4F0FB6F894DEBFAA
:105700000FBECDBFDF91CF911F910F91FF90EF9012
:10571000DF90CF90BF90AF909F908F907F906F90D1
:105720005F904F903F902F900895FC01A089B18920
:1057300082E08C93A485B5851C92A685B7858FECF5
:105740008C93108EA489B58986E08C93A289B38945
:105750008C9180618C93A289B3898C9188608C93A1
:10576000A289B3898C9180688C930288F389E02D9B
:1057700080818F7D808308952091CA069091DD08F5
:10578000213208F04AC08091A7068111FCCF32E097
:105790003093A70631E03093A6063FEF3093A5067D
:1057A0001092A4062093A306AAEAB6E043E856E0C6
:1057B000FA013E2F341B321718F43D913193F9CF83
:1057C0001092820620918206990F922B9093820666
:1057D00090918106913061F4109281069091820639
:1057E0009093BB009091BC0093FDF8CF95EC01C065
:1057F00095EE9093BC009091A7069230E1F39091C2
:10580000A5069F3F79F08091A506803241F08091F6
:10581000A506803331F084E005C081E003C082E05A
:1058200001C083E01092A9061092CA061092A80641
:1058300008959091A7069111FCCF91E09093A7064F
:105840009093A6062FEF2093A5061092A406260F8C
:105850002093A3069093820690918206880F892B4D
:105860008093820680918106813061F410928106D6
:10587000809182068093BB008091BC0083FDF8CFAD
:1058800085EC01C085EE8093BC008091A706813035
:10589000E1F38091A406861710F46091A406A3E8B2
:1058A000B6E021E636E0F9018E2F821B861718F448
:1058B0008D918193F9CF862F089591E09093A8065A
:1058C0008093DD081092A9061092CA060895EF92FF
:1058D000FF920F931F93DC01ED91FC9111971A96A3
:1058E0000D911C911B9718962D913C911997048C42
:1058F000F58DE02D7B0140E050E060E070E019950F
:105900001F910F91FF90EF9008950895FC0163702F
:10591000658B8481958126813781613039F06330D0
:1059200029F09187808733872287089531872087E0
:10593000938782870895AF92BF92CF92EF92FF92A2
:105940000F931F93CF93DF93EC01262F888D998DB2
:10595000009709F040C06A3059F41D861C862C89D6
:105960008E859F8538E0239F800D911D112441C0B5
:105970006D3009F4AAC08E898823C1F03C898C85DA
:105980009D8546E0349F800D911D112448855985E1
:10599000481759075CF41D861C868E859F8548E054
:1059A000349F800D911D11249F878E87EA88FB8884
:1059B000088919894E855F856C857D85CC88CE01E7
:1059C0000E947A1F2C898C859D8536E0239F800D4F
:1059D000911D112442C06A3079F41D861C862C89E1
:1059E000FC013696E4918E859F852E9F800D911D3A
:1059F00011249F878E8769C06D3009F466C0FC0151
:105A000034963491631708F460C03196E491E61738
:105A100008F45BC0FC013296A590B490462F50E08C
:105A2000431B510937E0349FB001359F700D11249D
:105A3000A60EB71EF501329634913196E4913323C8
:105A400011F0E1110DC0F5013496E4912C898C859B
:105A50009D85E29F800D911D11249D878C8735C007
:105A6000F501359644915E89552311F16C89E32F38
:105A7000F0E0E40FF11D47FDFA956E9FD0016F9F96
:105A8000B00D11244C855D854A0F5B1FE885F985B3
:105A9000E417F5076CF41D861C86FC013696E4912C
:105AA0008E859F856E9F800D911D11249F878E8707
:105AB000EA88FB88088919894E855F856C857D8514
:105AC000CC88CE010E947A1FBECF81E090E0DF91AA
:105AD000CF911F910F91FF90EF90CF90BF90AF901B
